:020000040800F2
:1000000000500020F90900082909000831090008FA
:1000100039090008410900084909000800000000EA
:10002000000000000000000000000000510900086E
:100030005D09000800000000690900087509000852
:10004000410A0008410A0008410A0008410A000864
:10005000410A0008410A0008410A0008410A000854
:10006000410A0008410A0008410A0008410A000844
:10007000410A0008410A0008410A0008410A000834
:10008000410A0008410A0008410A0008410A000824
:10009000410A0008410A0008410A0008410A000814
:1000A000410A0008410A0008410A0008410A000804
:1000B000410A0008410A0008410A0008410A0008F4
:1000C000410A0008410A0008410A0008410A0008E4
:1000D000410A0008410A0008410A0008410A0008D4
:1000E000410A0008410A0008410A00080000000017
:1000F0000000000000000000000000000000000000
:0C01000000000000000000005FF808F1A3
:10010C0010B5054C237833B9044B13B10448AFF345
:10011C0000800123237010BD60000020000000004F
:10012C009C21000808B5034B1BB103490348AFF3EE
:10013C00008008BD00000000640000209C21000825
:10014C00034613F8012B002AFBD1181A013870470B
:10015C00B0B58AB000AFF860B9607A603B6097F8D0
:10016C00443087F82630B7F84030BB84FB6B3B62D9
:10017C003B8FBB833B68BB617B687B61BB683B612E
:10018C0007F11003184600F00EF8FB681D4607F146
:10019C0010040FCC0FC594E8030085E80300F86841
:1001AC002837BD46B0BD80B582B000AF78607B68A3
:1001BC009B7D002B0CD13321786800F063F8322141
:1001CC00786800F05FF82821786800F05BF803E0AD
:1001DC003821786800F056F80121786800F052F860
:1001EC000C21786800F04EF80621786800F04AF887
:1001FC0000BF0837BD4680BD90B585B000AF7860B4
:10020C0039600023FB730AE0FB7B3A6813441B78CC
:10021C001946786800F064F8FB7B0133FB73FC7BB8
:10022C003868FFF78DFF03469C42EDD300BF00BF3B
:10023C001437BD4690BD000080B582B000AF786029
:10024C000B46FB701346BB70FB78074AD25CBB783D
:10025C001344DBB2803BDBB21946786800F012F82D
:10026C0000BF0837BD4680BD6822000880B582B04B
:10027C0000AF78600121786800F004F800BF0837FF
:10028C00BD4680BD80B582B000AF78600B46FB7078
:10029C007B6898687B689B890022194600F0D1FE28
:1002AC007B689B7D002B11D1FB781B09DBB20422F0
:1002BC001946786800F042F8FB7803F00F03DBB2C4
:1002CC0004221946786800F039F805E0FB7808221A
:1002DC001946786800F032F800BF0837BD4680BD7B
:1002EC0080B582B000AF78600B46FB707B68986875
:1002FC007B689B890122194600F0A3FE7B689B7DDD
:10030C00002B11D1FB781B09DBB20422194678684B
:10031C0000F014F8FB7803F00F03DBB2042219464B
:10032C00786800F00BF805E0FB780822194678682D
:10033C0000F004F800BF0837BD4680BD80B584B01E
:10034C0000AF78600B46FB701346BB700023FB7349
:10035C0019E07B681A68FB7B9B00134418687B6868
:10036C005A68FB7B5B0013441988FA78FB7B42FAD2
:10037C0003F3DBB203F00103DBB21A4600F061FEBB
:10038C00FB7B0133FB73FA7BBB789A42E1D37B682E
:10039C0018697B689B8A0122194600F052FE0120E5
:1003AC0000F0ACFB7B6818697B689B8A00221946BD
:1003BC0000F047FE00BF1037BD4680BDB0B5B0B0F1
:1003CC0004AFCF4A07F18C0307CA03C31A8000F0AD
:1003DC008BFBC7F8A80043F69823C7F8A03001237D
:1003EC0087F8A73000F028FB00F0AAF900F0E4F938
:1003FC00C44B07F17C040FCB84E80F00C24A07F111
:10040C00740392E8030083E80300384607F1740292
:10041C0007F17C010023039320230293BB4B019330
:10042C0010230093B94BFFF793FE07F15C043D4694
:10043C000FCD0FC495E8030084E80300B44B07F11B
:10044C004C040FCB84E80F00AF4A07F1440392E849
:10045C00030083E80300384607F1440207F14C011E
:10046C000023039320230293AA4B019310230093A0
:10047C00A84BFFF76DFE07F12C043D460FCD0FC4C2
:10048C0095E8030084E803004021A24800F0C2FD77
:10049C000346002B0AD100F027FBC7F8A80097F8F9
:1004AC00A730002B02D1012387F8A73000F01CFBEA
:1004BC000246D7F8A830D31AC7F89C30D7F8A0203A
:1004CC00D7F89C309A4205D9D7F8A020D7F89C30A1
:1004DC00D31A00E00023C7F89830D7F89830002BD7
:1004EC0038D197F8A730002B00F0058107F15C0399
:1004FC001846FFF7BBFE07F12C031846FFF7B6FEB4
:10050C0007F15C03002201211846FFF795FE07F165
:10051C005C0381491846FFF76FFE07F12C0300229C
:10052C0001211846FFF788FE07F12C037B4918467A
:10053C00FFF762FE774BDB68764A23F4FE43D36009
:10054C00724BDB68714A23F4FE43D360002387F8B7
:10055C00A730D0E0D7F8983041F28832934253D884
:10056C0097F8A730002B4FD0D7F898306C4AA2FBE5
:10057C0003239B0987F897306A4B1B7897F89720D1
:10058C009A4209D100F0B0FA0246674B1B68D31AA5
:10059C00B3F57A7FC0F0B180624A97F89730137048
:1005AC0000F0A2FA0346604A13605A4BDB68594AC2
:1005BC0023F4FE43D360554BDB68544A23F4FE43CB
:1005CC00D36007F15C031846FFF750FE07F12C03CC
:1005DC001846FFF74BFE07F12C03002201211846A9
:1005EC00FFF72AFE97F897305A1C07F118034F496A
:1005FC00184601F01DF907F1180207F12C031146FA
:10060C001846FFF7F9FD78E097F8A730002B3FF478
:10061C003BAF07F15C031846FFF728FE07F12C03EC
:10062C001846FFF723FE07F15C0300220021184651
:10063C00FFF702FE07F15C033D491846FFF7DCFDAE
:10064C0007F15C03002201211846FFF7F5FD07F1C5
:10065C005C0338491846FFF7CFFD07F12C03002245
:10066C0000211846FFF7E8FD07F12C033249184624
:10067C00FFF7C2FD07F12C03002201211846FFF7FA
:10068C00DBFD07F12C032D491846FFF7B5FD0023C0
:10069C00C7F8AC302AE01D4BDB6823F4FE4207F1AF
:1006AC008C01D7F8AC300B441B781B0203F4FE43CF
:1006BC0016491343CB60174BDB6823F4FE42D7F883
:1006CC00AC30C3F10903B0333B4413F8243C1B0298
:1006DC0003F4FE430F491343CB604FF4FA7000F060
:1006EC000DFAD7F8AC300133C7F8AC30D7F8AC30D2
:1006FC00092BD0DDC8E600BFC6E600BFC4E600BFCC
:10070C00342200084022000850220008000C01404E
:10071C005822000800080140B4210008C421000838
:10072C00D34D6210000000207C000020D82100086E
:10073C00EC210008002200081422000824220008E2
:10074C0080B590B000AF07F118032822002118469D
:10075C0001F090F83B1D00221A605A609A60DA6032
:10076C001A610223BB610123BB621023FB620023CD
:10077C007B6307F11803184600F07CFC0346002B42
:10078C0001D000F093F80F237B600023BB600023A3
:10079C00FB6000233B6100237B613B1D002118465D
:1007AC0000F0EAFE0346002B01D000F07FF800BFFA
:1007BC004037BD4680BD000080B588B000AF07F162
:1007CC00100300221A605A609A60DA60344B9B69FD
:1007DC00334A43F020039361314B9B6903F02003B0
:1007EC00FB60FB682E4B9B692D4A43F0040393611D
:1007FC002B4B9B6903F00403BB60BB68284B9B69C4
:10080C00274A43F008039361254B9B6903F00803C7
:10081C007B607B68002247F63F71224800F011FC98
:10082C00002247F63F71204800F00BFC47F63F735F
:10083C003B6101237B610023BB610223FB6107F158
:10084C0010031946174800F061FA40233B6100235E
:10085C007B610123BB6107F110031946114800F0BD
:10086C0055FA47F63F733B6101237B610023BB6163
:10087C000223FB6107F1100319460B4800F046FAFE
:10088C0040233B6100237B610123BB6107F1100313
:10089C001946054800F03AFA00BF2037BD4680BD26
:1008AC000010024000080140000C014080B400AF71
:1008BC0072B600BF00BFFDE780B485B000AF154B2A
:1008CC009B69144A43F001039361124B9B6903F03B
:1008DC000103BB60BB680F4BDB690E4A43F08053CE
:1008EC00D3610C4BDB6903F080537B607B680A4B54
:1008FC005B68FB60FB6823F0E063FB60FB6843F024
:10090C008063FB60044AFB68536000BF1437BD462C
:10091C0080BC7047001002400000014080B400AF62
:10092C0000BFFDE780B400AF00BFFDE780B400AFAF
:10093C0000BFFDE780B400AF00BFFDE780B400AF9F
:10094C0000BFFDE780B400AF00BFBD4680BC704760
:10095C0080B400AF00BFBD4680BC704780B400AF10
:10096C0000BFBD4680BC704780B500AF00F0AAF850
:10097C0000BF80BD80B586B000AF7860144A154BBF
:10098C00D31A7B617B693B61134B1B68002B02D133
:10099C00114B124A1A60104B1A687B6813443A695F
:1009AC009A4207D200F06EFF03460C221A604FF0F9
:1009BC00FF3309E0084B1B68FB60074B1A687B6828
:1009CC001344054A1360FB6818461837BD4680BDB2
:1009DC00005000200004000080000020D001002006
:1009EC0080B400AF00BFBD4680BC7047FFF7F8FF76
:1009FC000B480C490C4A002302E0D458C450043371
:100A0C00C4188C42F9D3094A094C002301E0136045
:100A1C000432A242FBD300F03BFFFFF7CFFC704740
:100A2C000000002060000020D4220008600000209C
:100A3C00D0010020FEE7000080B500AF084B1B681A
:100A4C00074A43F010031360032000F02BF90F202A
:100A5C0000F008F8FFF730FF0023184680BD00BFF8
:100A6C000020024080B582B000AF7860124B1A684B
:100A7C00124B1B7819464FF47A73B3FBF1F3B2FBAC
:100A8C00F3F3184600F035F90346002B01D001238F
:100A9C000EE07B680F2B0AD8002279684FF0FF30EC
:100AAC0000F00BF9064A7B681360002300E0012379
:100ABC0018460837BD4680BD040000200C000020FD
:100ACC000800002080B400AF054B1B781A46054B7C
:100ADC001B681344034A136000BFBD4680BC7047BB
:100AEC000C0000208400002080B400AF024B1B6877
:100AFC001846BD4680BC70478400002080B584B089
:100B0C0000AF7860FFF7F0FFB8607B68FB60FB68B4
:100B1C00B3F1FF3F05D00A4B1B781A46FB68134410
:100B2C00FB6000BFFFF7E0FF0246BB68D31AFA6810
:100B3C009A42F7D800BF00BF1037BD4680BD00BF3A
:100B4C000C00002080B485B000AF78607B6803F0A7
:100B5C000703FB600C4BDB68BB60BA684FF6FF0306
:100B6C001340BB60FB681A02BB68134343F0BF63BE
:100B7C0043F40033BB60044ABB68D36000BF143736
:100B8C00BD4680BC704700BF00ED00E080B400AFF4
:100B9C00044BDB681B0A03F007031846BD4680BCF8
:100BAC00704700BF00ED00E080B483B000AF034697
:100BBC003960FB7197F90730002B0ADB3B68DAB21E
:100BCC000C4997F907301201D2B20B4483F8002379
:100BDC000AE03B68DAB20849FB7903F00F03043BE7
:100BEC001201D2B20B441A7600BF0C37BD4680BC42
:100BFC00704700BF00E100E000ED00E080B489B078
:100C0C0000AFF860B9607A60FB6803F00703FB6122
:100C1C00FB69C3F10703042B28BF0423BB61FB69E9
:100C2C000433062B02D9FB69033B00E000237B61F4
:100C3C004FF0FF32BB6902FA03F3DA43BB681A4088
:100C4C007B699A404FF0FF317B6901FA03F3D9437A
:100C5C007B680B40134318462437BD4680BC704755
:100C6C0080B582B000AF78607B68013BB3F1807FC8
:100C7C0001D301230FE00A4A7B68013B53600F212B
:100C8C004FF0FF30FFF790FF054B00229A60044BAA
:100C9C0007221A60002318460837BD4680BD00BFE6
:100CAC0010E000E080B582B000AF78607868FFF7A4
:100CBC0049FF00BF0837BD4680BD80B586B000AF88
:100CCC000346B9607A60FB7300237B61FFF75EFF1C
:100CDC0078617A68B9687869FFF790FF024697F9EE
:100CEC000F3011461846FFF75FFF00BF1837BD469F
:100CFC0080BD80B582B000AF78607868FFF7B0FF38
:100D0C00034618460837BD4680BD000080B48BB042
:100D1C0000AF7860396000237B6200233B6269E19D
:100D2C0001227B6A02FA03F3FB613B681B68FA69D8
:100D3C001340BB61BA69FB699A4240F058813B6829
:100D4C005B689A4A93425ED0984A934275D8984A07
:100D5C00934258D0964A93426FD8964A934252D0B7
:100D6C00944A934269D8944A93424CD0924A934203
:100D7C0063D8924A934246D0904A93425DD8122B44
:100D8C002AD8122B59D801A252F823F0130E0008BE
:100D9C00ED0D0008FF0D0008410E0008470E00087D
:100DAC00470E0008470E0008470E0008470E0008C3
:100DBC00470E0008470E0008470E0008470E0008B3
:100DCC00470E0008470E0008470E0008470E0008A3
:100DDC00F50D0008090E0008794A934213D02CE057
:100DEC003B68DB683B6229E03B68DB6804333B62B1
:100DFC0024E03B68DB6808333B621FE03B68DB6840
:100E0C000C333B621AE03B689B68002B02D1042335
:100E1C003B6213E03B689B68012B05D108233B62C6
:100E2C007B68FA691A6109E008233B627B68FA69FE
:100E3C005A6103E000233B6200E000BFBB69FF2B5B
:100E4C0001D87B6801E07B6804337B61BB69FF2BB5
:100E5C0002D87B6A9B0002E07B6A083B9B003B61EB
:100E6C007B691A680F213B6901FA03F3DB431A40D3
:100E7C00396A3B6901FA03F31A437B691A603B68D0
:100E8C005B6803F08053002B00F0B1804D4B9B69E5
:100E9C004C4A43F0010393614A4B9B6903F00103F5
:100EAC00BB60BB68484A7B6A9B08023352F823300C
:100EBC00FB607B6A03F003039B000F2202FA03F32F
:100ECC00DB43FA681340FB607B68404A934213D0C3
:100EDC007B683F4A93420DD07B683E4A934207D0D1
:100EEC007B683D4A934201D1032306E0042304E0CE
:100EFC00022302E0012300E000237A6A02F00302DD
:100F0C0092009340FA681343FB602F497B6A9B085D
:100F1C000233FA6841F823203B685B6803F48013C2
:100F2C00002B06D02D4B9A682C49BB6913438B6060
:100F3C0006E02A4B9A68BB69DB43284913408B6057
:100F4C003B685B6803F40013002B06D0234BDA6874
:100F5C002249BB691343CB6006E0204BDA68BB69BE
:100F6C00DB431E491340CB603B685B6803F40033E2
:100F7C00002B06D0194B5A681849BB6913434B60B8
:100F8C0006E0164B5A68BB69DB43144913404B60AF
:100F9C003B685B6803F48033002B21D00F4B1A683D
:100FAC000E49BB6913430B6021E000BF00003210F7
:100FBC00000031100000221000002110000012105F
:100FCC000000111000100240000001400008014018
:100FDC00000C0140001001400014014000040140CD
:100FEC000B4B1A68BB69DB43094913400B607B6AE6
:100FFC0001337B623B681A687B6A22FA03F3002B8D
:10100C007FF48EAE00BF00BF2C37BD4680BC70474E
:10101C000004014080B485B000AF78600B467B8043
:10102C007B689A687B881340002B02D00123FB73EA
:10103C0001E00023FB73FB7B18461437BD4680BCD4
:10104C00704780B483B000AF78600B467B8013464A
:10105C007B707B78002B03D07A887B681A6103E065
:10106C007B881A047B681A6100BF0C37BD4680BCB4
:10107C007047000080B586B000AF78607B68002BAD
:10108C0001D1012372E27B681B6803F00103002B82
:10109C0000F08780924B5B6803F00C03042B0CD0A0
:1010AC008F4B5B6803F00C03082B12D18C4B5B68E5
:1010BC0003F48033B3F5803F0BD1894B1B6803F4E9
:1010CC000033002B6CD07B685B68002B68D101234C
:1010DC004CE27B685B68B3F5803F06D1804B1B68A4
:1010EC007F4A43F4803313602EE07B685B68002BEF
:1010FC000CD17B4B1B687A4A23F480331360784BFA
:10110C001B68774A23F4802313601DE07B685B68BF
:10111C00B3F5A02F0CD1724B1B68714A43F480239A
:10112C0013606F4B1B686E4A43F4803313600BE003
:10113C006B4B1B686A4A23F480331360684B1B6843
:10114C00674A23F4802313607B685B68002B13D001
:10115C00FFF7CAFC386108E0FFF7C6FC02463B69A2
:10116C00D31A642B01D9032300E25D4B1B6803F4F3
:10117C000033002BF0D014E0FFF7B6FC386108E028
:10118C00FFF7B2FC02463B69D31A642B01D9032347
:10119C00ECE1534B1B6803F40033002BF0D100E05F
:1011AC0000BF7B681B6803F00203002B63D04C4B21
:1011BC005B6803F00C03002B0BD0494B5B6803F00E
:1011CC000C03082B1CD1464B5B6803F48033002BBB
:1011DC0016D1434B1B6803F00203002B05D07B6830
:1011EC001B69012B01D00123C0E13D4B1B6823F08F
:1011FC00F8027B685B69DB00394913430B603AE00A
:10120C007B681B69002B20D0364B01221A60FFF73C
:10121C006BFC386108E0FFF767FC02463B69D31AA8
:10122C00022B01D90323A1E12D4B1B6803F0020310
:10123C00002BF0D02A4B1B6823F0F8027B685B690B
:10124C00DB00274913430B6015E0264B00221A6084
:10125C00FFF74AFC386108E0FFF746FC02463B69A1
:10126C00D31A022B01D9032380E11D4B1B6803F019
:10127C000203002BF0D17B681B6803F00803002BE2
:10128C003AD07B689B69002B19D0174B01221A604E
:10129C00FFF72AFC386108E0FFF726FC02463B69A1
:1012AC00D31A022B01D9032360E10D4B5B6A03F0C7
:1012BC000203002BF0D0012000F09CFA1CE00A4B3A
:1012CC0000221A60FFF710FC38610FE0FFF70CFCEE
:1012DC0002463B69D31A022B08D9032346E100BF0F
:1012EC00001002400000424280044242924B5B6A72
:1012FC0003F00203002BE9D17B681B6803F00403A5
:10130C00002B00F0A6800023FB758B4BDB6903F0F0
:10131C008053002B0DD1884BDB69874A43F08053F7
:10132C00D361854BDB6903F08053BB60BB68012341
:10133C00FB75824B1B6803F48073002B18D17F4B19
:10134C001B687E4A43F480731360FFF7CDFB386152
:10135C0008E0FFF7C9FB02463B69D31A642B01D99D
:10136C00032303E1754B1B6803F48073002BF0D04F
:10137C007B68DB68012B06D16F4B1B6A6E4A43F00E
:10138C00010313622DE07B68DB68002B0CD16A4BE8
:10139C001B6A694A23F001031362674B1B6A664A96
:1013AC0023F0040313621CE07B68DB68052B0CD173
:1013BC00614B1B6A604A43F0040313625E4B1B6A69
:1013CC005D4A43F0010313620BE05B4B1B6A5A4A04
:1013DC0023F001031362584B1B6A574A23F0040392
:1013EC0013627B68DB68002B15D0FFF77DFB38613F
:1013FC000AE0FFF779FB02463B69D31A41F28832C7
:10140C00934201D90323B1E04B4B1B6A03F0020357
:10141C00002BEED014E0FFF767FB38610AE0FFF712
:10142C0063FB02463B69D31A41F28832934201D9DD
:10143C0003239BE0404B1B6A03F00203002BEED10D
:10144C00FB7D012B05D13C4BDB693B4A23F08053E0
:10145C00D3617B68DB69002B00F08780364B5B68BF
:10146C0003F00C03082B61D07B68DB69022B46D19F
:10147C00334B00221A60FFF737FB386108E0FFF7A7
:10148C0033FB02463B69D31A022B01D903236DE0CF
:10149C00294B1B6803F00073002BF0D17B681B6A8F
:1014AC00B3F5803F08D1244B5B6823F400327B6892
:1014BC009B68214913434B601F4B5B6823F47412E8
:1014CC007B68196A7B685B6A0B431B4913434B604F
:1014DC001B4B01221A60FFF707FB386108E0FFF78E
:1014EC0003FB02463B69D31A022B01D903233DE0CF
:1014FC00114B1B6803F00073002BF0D035E0104B40
:10150C0000221A60FFF7F0FA386108E0FFF7ECFAF6
:10151C0002463B69D31A022B01D9032326E0064B62
:10152C001B6803F00073002BF0D11EE07B68DB69B5
:10153C00012B07D1012319E000100240007000407C
:10154C00600042420B4B5B68FB60FB6803F480322B
:10155C007B681B6A9A4206D1FB6803F470127B68A5
:10156C005B6A9A4201D0012300E000231846183729
:10157C00BD4680BD0010024080B584B000AF7860DD
:10158C0039607B68002B01D10123D0E06A4B1B68CA
:10159C0003F007033A689A4210D9674B1B6823F093
:1015AC00070265493B6813430B60634B1B6803F0F0
:1015BC0007033A689A4201D00123B8E07B681B68A4
:1015CC0003F00203002B20D07B681B6803F004039C
:1015DC00002B05D0594B5B68584A43F4E0635360C9
:1015EC007B681B6803F00803002B05D0534B5B682A
:1015FC00524A43F460535360504B5B6823F0F00243
:10160C007B689B684D4913434B607B681B6803F0F8
:10161C000103002B40D07B685B68012B07D1474B43
:10162C001B6803F40033002B15D101237FE07B688A
:10163C005B68022B07D1414B1B6803F00073002B36
:10164C0009D1012373E03D4B1B6803F00203002B0F
:10165C0001D101236BE0394B5B6823F003027B68FB
:10166C005B68364913434B60FFF73EFAF8600AE0BB
:10167C00FFF73AFA0246FB68D31A41F288329342DA
:10168C0001D9032353E02D4B5B6803F00C027B68FC
:10169C005B689B009A42EBD1274B1B6803F0070356
:1016AC003A689A4210D2244B1B6823F00702224955
:1016BC003B6813430B60204B1B6803F007033A682D
:1016CC009A4201D0012332E07B681B6803F00403CB
:1016DC00002B08D0194B5B6823F4E0627B68DB6855
:1016EC00164913434B607B681B6803F00803002BFF
:1016FC0009D0124B5B6823F460527B681B69DB00DA
:10170C000E4913434B6000F021F802460B4B5B680B
:10171C001B0903F00F030A49CB5C22FA03F3094AB5
:10172C001360094B1B681846FFF79CF900231846F9
:10173C001037BD4680BD00BF0020024000100240A3
:10174C006C220008040000200800002080B487B040
:10175C0000AF0023FB600023BB6000237B610023F0
:10176C007B6000233B611E4B5B68FB60FB6803F0F6
:10177C000C03042B02D0082B03D027E0194B3B6140
:10178C0027E0FB689B0C03F00F03174AD35C7B60CC
:10179C00FB6803F48033002B10D0114B5B685B0C9F
:1017AC0003F00103114AD35CBB607B680D4A03FB59
:1017BC0002F2BB68B2FBF3F37B6104E07B680C4A7A
:1017CC0002FB03F37B617B693B6102E0054B3B61F0
:1017DC0000BF3B6918461C37BD4680BC704700BF34
:1017EC000010024000127A007C2200088C220008B3
:1017FC0000093D0080B485B000AF78600A4B1B68CF
:10180C000A4AA2FB03235B0A7A6802FB03F3FB6020
:10181C0000BFFB685A1EFA60002BF9D100BF00BF55
:10182C001437BD4680BC704704000020D34D6210B5
:10183C000EB46FF0004110B500249DB01FAB0290A8
:10184C000690079104910948094953F8042B059116
:10185C00006802A901931B9400F092F9029B1C7082
:10186C001DB0BDE8104003B0704700BF1000002051
:10187C000802FFFF03460244934200D1704703F86D
:10188C00011BF9E7014B1868704700BF10000020DE
:10189C0070B500260C4D0D4C641BA410A64209D14A
:1018AC0000F076FC00260A4D0A4C641BA410A642DC
:1018BC0005D170BD55F8043B98470136EEE755F855
:1018CC00043B98470136F2E7CC220008CC220008F2
:1018DC00CC220008D02200087047704738B5054666
:1018EC00002940D051F8043C0C1F002BB8BFE41861
:1018FC0000F0DEF81C4A136833B9636014602846A4
:10190C00BDE8384000F0DAB8A34208D920682118A5
:10191C008B4201BF19685B6809182160EDE71A4614
:10192C005B680BB1A342FAD911685018A0420BD1D5
:10193C0020680144501883421160E0D118685B683C
:10194C00084410605360DAE702D90C232B60D6E709
:10195C00206821188B4201BF19685B680918216047
:10196C0063605460CBE738BDCC01002070B50F4EDE
:10197C000C463168054611B900F0A8FB30602146D1
:10198C00284600F0A3FB431C03D14FF0FF34204644
:10199C0070BDC41C24F00304A042F8D0211A2846C0
:1019AC0000F094FB0130F2D1EFE700BFC80100203A
:1019BC002DE9F843CD1C25F0030508350C2D38BF57
:1019CC000C25002D064601DBA94204D90C233360FB
:1019DC000020BDE8F883DFF8D48000F069F8D8F86F
:1019EC0000301C4644BB29463046FFF7BFFF431C62
:1019FC00044658D1D8F800402746002F43D1002C7C
:101A0C004BD023683946304604EB030900F05EFBEB
:101A1C00814542D1216830466D1A2946FFF7A6FF51
:101A2C0001303AD023682B442360D8F800305A6830
:101A3C0062BBC8F800700FE02268521B20D40B2A3E
:101A4C0017D96119A342256018BF5960636808BF94
:101A5C00C8F8001062514B60304600F02FF804F1CA
:101A6C000B00231D20F00700C21A1CBF1B1AA35029
:101A7C00AFE76268A3420CBFC8F800205A60EBE7DE
:101A8C0023466468AEE73C467F68B6E71A465B6857
:101A9C00A342FBD100235360DEE70C2330463360B6
:101AAC0000F00CF894E70560D6E700BFCC010020ED
:101ABC000148FFF711BF00BFC40100200148FFF728
:101ACC000CBF00BFC40100202DE9F0471F468E68F3
:101ADC008246BE420C4690460B682DD8B1F90C20BC
:101AEC0012F4906F26D06569096905EB4505A3EBE7
:101AFC00010905EBD5757B1C4B446D109D4238BF1D
:101B0C001D46530527D52946FFF752FF064660B3FD
:101B1C004A46216900F0F8FAA38923F4906343F054
:101B2C008003A38126614E4426603E466561A5EB89
:101B3C000905A560BE4200D93E46324641462068A2
:101B4C0000F0AAFA0020A3689B1BA360236833440F
:101B5C002360BDE8F0872A4600F0E4FA0646002828
:101B6C00E0D150462169FFF7B9FE0C23CAF80030CA
:101B7C00A3894FF0FF3043F04003A381E9E7000055
:101B8C002DE9F04F98468B8907461B060D461446E7
:101B9C009DB010D50B6973B94021FFF709FF286080
:101BAC00286130B90C233B604FF0FF301DB0BDE80D
:101BBC00F08F40236B610023099320238DF829308B
:101BCC0030234FF00109CDF80C80DFF898818DF8A7
:101BDC002A3023469A4613F8012B0AB1252AF9D14B
:101BEC00BAEB040B0BD05B46224629463846FFF76E
:101BFC006BFF013000F0A780099A5A4409929AF8B9
:101C0C000030002B00F09F8000234FF0FF32CDE915
:101C1C0005230AF1010A049307938DF853301A93A4
:101C2C005446052214F8011B4E4800F05FFA049A42
:101C3C00D8B9D00644BF20238DF85330110744BFC8
:101C4C002B238DF853309AF800302A2B15D054469C
:101C5C0000204FF00A0C079A214611F8013B303B4B
:101C6C00092B4BD9B0B1079214E0A0EB080309FA89
:101C7C0003F31343A2460493D2E7039B191D1B687D
:101C8C000391002BBBBF5B4242F002020793079308
:101C9C00B8BF049223782E2B0AD163782A2B32D129
:101CAC00039B02341A1D1B68039243EAE3730593EA
:101CBC00DFF8B4A003225046217800F017FA38B1AF
:101CCC004022049BA0EB0A0082401343013404938E
:101CDC0014F8011B062225488DF8281000F006FA8E
:101CEC00002836D0224B1BBB039B073323F0070382
:101CFC0008330393099B334409936AE70C4601208C
:101D0C000CFB0232A8E700234FF00A0C19460134F1
:101D1C000593204610F8012B303A092A03D9002BE1
:101D2C00C6D00591C4E7044601230CFB0121F0E762
:101D3C0003AB00932A4638460E4B04A9AFF3008040
:101D4C00421C0646D6D1AB895B063FF52DAF0998F0
:101D5C002CE703AB00932A463846064B04A900F047
:101D6C007DF8EDE78E2200089422000898220008E6
:101D7C0000000000D51A00082DE9F04716469846D9
:101D8C008A680B6907469342B8BF1346336091F8D3
:101D9C0043200C46DDF820900AB1013333602368F0
:101DAC00990642BF336802333360256815F0060587
:101DBC0006D104F1190AE36832689B1AAB422BDC9A
:101DCC0094F843302268003B18BF0123920630D4AC
:101DDC004146384604F14302C847013023D02368FA
:101DEC00226903F00603042B14BF002533684FF05F
:101DFC00000608BFE56804F11A0408BFED1A54F890
:101E0C00123C08BF25EAE5759342C4BF9B1AED1836
:101E1C00B5421AD1002008E001235246414638460B
:101E2C00C847013003D14FF0FF30BDE8F0870135D2
:101E3C00C1E73020E11881F843005A1C94F8451092
:101E4C002244023382F84310C2E701232246414662
:101E5C003846C8470130E6D00136D9E72DE9FF47AF
:101E6C000F7E9146782F80460C469A460C9E01F1C7
:101E7C00430207D8622F0AD8002F00F0D180582FC8
:101E8C0000F0B88004F1420684F842703AE0A7F101
:101E9C006303152BF6D801A151F823F0011F00089C
:101EAC00151F0008911E0008911E0008911E0008C5
:101EBC00911E0008151F0008911E0008911E0008B5
:101ECC00911E0008911E0008132000083F1F0008F7
:101EDC00CD1F0008911E0008911E00083520000837
:101EEC00911E00083F1F0008911E0008911E00085B
:101EFC00D51F000833681A1D1B68326004F14206B6
:101F0C0084F8423001239CE033682068191D31604D
:101F1C00060601D51D6803E04506FBD5B3F9005054
:101F2C00002D03DA2D236D4284F843300A235848E0
:101F3C0011E021683368080653F8045B02D44906A3
:101F4C0048BFADB26F2F336014BF0A23082350482B
:101F5C00002184F843106668002EA66005DB21681A
:101F6C002E4321F0040121604BD01646B5FBF3F152
:101F7C0003FB1157C75D06F8017D2F46BB420D468A
:101F8C00F4D9082B0BD12368DF0708D523696168C6
:101F9C009942DEBF302306F8013C06F1FF36921B56
:101FAC0022614B4621464046CDF800A003AAFFF71C
:101FBC00E3FE01304AD14FF0FF3004B0BDE8F087AA
:101FCC00236843F0200323607827324884F8457057
:101FDC00236831681F0651F8045B02D45F0648BFC2
:101FEC00ADB23160D90744BF43F0200323601DB16B
:101FFC001023ADE72648E9E7236823F0200323608C
:10200C00F6E71646BDE733682568181D6169306030
:10201C002E061B6801D5196002E06806FBD51980F5
:10202C00002316462361BCE7336800211A1D326079
:10203C001E686268304600F059F808B1801B606079
:10204C0063682361002384F84330AAE7324649468B
:10205C0040462369D0470130ADD023689B0713D489
:10206C00E068039B9842B8BF1846A6E701233246A6
:10207C0049464046D04701309DD00135E36803996D
:10208C005B1AAB42F2DCEBE7002504F11906F5E72D
:10209C009F220008B0220008884210B501EB020410
:1020AC0002D98442234607D8431EA14208D011F816
:1020BC00012B03F8012FF8E7014602448A4200D1B4
:1020CC0010BD13F8014D02F8014DF7E738B50023A8
:1020DC00054D044608462B60FEF74CFC431C02D110
:1020EC002B6803B1236038BDC0010020034610B536
:1020FC00C9B202449342184601D1002003E004788F
:10210C0001338C42F6D110BD0A44914200F1FF33E9
:10211C0000D1704710B511F8014B914203F8014FF3
:10212C00F9D110BD2DE9F041074614460D4621B9F1
:10213C001146BDE8F041FFF73BBC2AB9FFF7CEFBD7
:10214C0025462846BDE8F08100F01AF88442064680
:10215C0002D8B4EB500FF4D821463846FFF728FCD0
:10216C00804608B94546ECE7B4422246294628BFCA
:10217C003246FFF7C9FF29463846FFF7AFFBF1E7B8
:10218C0051F8043C181F002BBCBF0B58C0187047EB
:10219C00F8B500BFF8BC08BC9E467047F8B500BF48
:0821AC00F8BC08BC9E46704718
:1021B400444541444D414E20414354495645210034
:1021C40053595354454D2053485554444F574E2169
:1021D4000000000053687574646F776E20696E3A6E
:1021E4002025757300000000566F6C7461676520CC
:1021F400447261773A20313256000000437572729E
:10220400656E7420447261773A2033410000000007
:1022140052616E67653A203130304B4D000000004A
:10222400426174746572793A2036302500000000EA
:10223400407924301912027800100000000C01408B
:10224400000C0140000C0140000C014001000200A0
:102254000400080000080140000801400008014093
:102264000008014000401050000000000000000081
:102274000102030406070809020304050607080906
:102284000A0B0C0D0E0F10100102232D302B200011
:10229400686C4C006566674546470030313233341C
:1022A40035363738394142434445460030313233BC
:1022B400343536373839616263646566000000007E
:0822C40088DEFF7F010000002D
:0422CC0031010008D4
:0422D0000D010008F4
:1022D400FF00000000127A0010000000010000005E
:1022E400140000200000000088000020F0000020FE
:1022F4005801002000000000000000000000000061
:1023040000000000000000000000000000000000C9
:1023140000000000000000000000000000000000B9
:1023240000000000000000000000000000000000A9
:04000005080009F9ED
:00000001FF
